:100000000C9451010C946E010C946E010C946E01D1
:100010000C946E010C946E010C946E010C944F04C0
:100020000C946E010C946E010C946E010C944504BA
:100030000C946E010C946E010C946E010C946E0184
:100040000C946E010C946E010C946E010C946E0174
:100050000C946E010C946E010C946E010C941F04B0
:100060000C946E010C946E01000000000000104121
:100070000400400028A0000000000057CA7D400096
:1000800010E30418E10025538E55200010A31548F5
:10009000D0001040000000000C42082040C060402A
:1000A0008208460010A10A00000000000438400049
:1000B00000000000410800000E00000000000000E9
:1000C00040000420841082007C8A92A27C000042BE
:1000D000FE02000042868A9262008482A2D28C00D4
:1000E000182848FE0800E4A2A2A29C003C5292926A
:1000F0000C00868890A0C0006C9292926C00609276
:1001000092947800000100004000000100004108C6
:1001100000108C0810000003C03C00000081031098
:1001200080003810840040001894D55D03C07E889C
:1001300088887E00FE9292926C007C8282824400CB
:10014000FE8282443800FE9292928200FE9090904D
:1001500080007C82828A4C00FE101010FE0000821B
:10016000FE820000040282FC8000FE10284482000F
:10017000FE0202020200FE402040FE00FE201008A7
:10018000FE007C8282827C007E90909060007C8267
:100190008A847A00FE9098946200629292928C0017
:1001A0008080FE808000FC020202FC00FE04080445
:1001B000FE00FE040804FE00C6281028C600011236
:1001C00084104000868A92A2C20018410410418027
:1001D00040820410208030410410430010A291445A
:1001E00000000000000007C02040000000000003E5
:1001F0000238F00020838924E0000001882060009C
:1002000008239248E00000010E2060000C43C41057
:1002100040000001C93C138020828D24900010030F
:100220000410400008038208230020828C289000DC
:1002300030410410400000055F55500000028D243D
:10024000900000018924600000038924E20000037B
:100250009248E08000028C20800000018C08C000E1
:100260000043C41020000002492C5000000249182D
:10027000600000055538A0000002461890000002FA
:100280004918670000038620E000084108104080FC
:1002900010410410410020410210420000000D48AE
:1002A000000011241FBECFEFD8E0DEBFCDBF11E0AC
:1002B000A0E0B1E0ECE8FEE002C005900D92A033B2
:1002C000B107D9F725E0A0E3B1E001C01D92A03548
:1002D000B207E1F70E94AF030C9444070C940000AE
:1002E0000E94DB026FE384E00E94EE026FE383E092
:1002F0000E94EE0260EC84E00E94EE0260EC83E07B
:100300000E94EE020895DF92EF92FF920F931F93E7
:10031000CF93DF93C2E7D1E0D12C1D2D1770186B5E
:10032000612F84E00E94EE02612F83E00E94EE02C2
:1003300060E484E00E94EE0260E483E00E94EE024A
:100340007E018E01C054D109699184E00E942A0384
:10035000F80161918F0183E00E942A03CE15DF0529
:1003600099F7E701C058DF4FD394F8E0DF12D5CFFB
:10037000DF91CF911F910F91FF90EF90DF90089543
:10038000682F70E040E054E082E391E00E946C044A
:1003900008959FE3981B892F4423D1F0E92FE69518
:1003A000E695E69540E8E49FF0011124E60FF11D83
:1003B000EE5CFE4F877021E030E0A90102C0440FDF
:1003C000551F8A95E2F7CA019081892B8083089591
:1003D000E92FE695E695E69550E8E59FF0011124B2
:1003E000E60FF11DEE5CFE4F877021E030E0A901C1
:1003F00002C0440F551F8A95E2F7CA01809590818B
:100400008923808308956F927F928F929F92AF92FB
:10041000BF92CF92DF92EF92FF920F931F93CF93F1
:10042000DF93A82E662E8A01FA01C281D3818181D1
:10043000882381F1912CD12C712C6894EE24E7F85B
:10044000F12C872C1FC0FE01449197010D2C02C096
:10045000359527950A94E2F742236B2D8C2D8A0D52
:100460000E94C901D394F8E0DF1202C02196D82C73
:10047000C394F8019081C91630F39394F8018181F7
:10048000981640F4F80180818823B9F3C72CB62C64
:10049000B918D9CFDF91CF911F910F91FF90EF90B5
:1004A000DF90CF90BF90AF909F908F907F906F9094
:1004B0000895BF92CF92DF92EF92FF920F931F9316
:1004C000CF93DF9300D000D0CDB7DEB7B62E8A0130
:1004D0004FE750E07A01E81AF108F801808189833A
:1004E00081818A83F9014081442329F16901FFEF69
:1004F000CF1ADF0AF801828150E09381491B51092C
:10050000849F9001859F300D112444815581240FD3
:10051000351F3C832B83AE014F5F5F4F6E2D8B2DBC
:100520000E940302F8018181E81AF108F601419165
:100530006F014111DFCF0F900F900F900F90DF915F
:10054000CF911F910F91FF90EF90DF90CF90BF90D0
:1005500008951AB81BB84298419A48B121E030E09A
:10056000B90102C0660F771F8A95E2F7CB01962F7B
:100570009095492348B94098000000000000000011
:100580000000000000000000429A0000000000008F
:100590000000000000000000000042980000000081
:1005A00000000000000000000000000098B1892B4E
:1005B00088B989B1089517B83C9A3B9A399A389A04
:1005C0003A9A449A439A84E00E94A90284FDFBCFA0
:1005D00083E00E94A90284FDFBCF0895CF93DF93AF
:1005E000C82FD62F8C2F0E94A9028823DCF38FEF0F
:1005F0008AB94298419848B121E030E0C90102C06F
:10060000880F991FCA95E2F7982F9095942398B96F
:100610004098000000000000000000000000000002
:100620000000429ADBB9000000000000000000005A
:1006300000000000000042980000000000000000E0
:10064000000000000000000098B1892B88B9DF91FC
:10065000CF910895CF93DF93C82FD62F8C2F0E9470
:10066000A9028823DCF38FEF8AB94298419848B1F8
:1006700021E030E0C90102C0880F991FCA95E2F756
:10068000982F9095942398B9409A0000000000009C
:1006900000000000000000000000429ADBB90000EA
:1006A0000000000000000000000000000000429870
:1006B000000000000000000000000000000000003A
:1006C00098B1892B88B9DF91CF910895ECE7F0E0DC
:1006D000808380818064808380818F7D8083EAE74E
:1006E000F0E0808187608083808180688083808162
:1006F00080648083808186FDFDCF20917800809189
:10070000790090E0982F8827820F911D089585E049
:100710000E946603863292401CF481E080930001BF
:1007200008958AE0809381008FE097E2909389009A
:1007300080938800EFE6F0E08081826080830895F6
:1007400082E08093B00087E08093B10089ED8093D0
:10075000B300E0E7F0E080818260808308950E942A
:1007600091030E94A0030E9470017894C7E0D1E039
:100770000F2EF2E4CF2EF5E0DF2EF02D0F2EFCE34E
:10078000EF2EF5E0FF2EF02D0AE415E085E00E9443
:1007900066039093330580933205809149058F93CA
:1007A000809148058F93DF93CF93DF92CF920E9481
:1007B0007304809133058F93809132058F93DF937B
:1007C000CF93FF92EF920E947304809135058F932F
:1007D000809134058F93DF93CF931F930F930E94E3
:1007E000730480E00E94C0012AE031E041E051E062
:1007F00060E082E00E945902970141E051E06AE026
:1008000082E00E9459022DE131E041E051E064E1D3
:1008100082E00E945902980141E051E06EE182E0DD
:100820000E9459020E9483010E9487038DB79EB7E0
:1008300042960FB6F8949EBF0FBE8DBFA7CF1F92F2
:100840000F920FB60F9211248F939F9380B78D7FD5
:1008500080BF80B7816080BF80910001882371F0E4
:10086000809130019091310190933505809334054A
:100870001092310110923001109200019F918F91DE
:100880000F900FBE0F901F9018951F920F920FB6EA
:100890000F9211240F900FBE0F901F9018951F926A
:1008A0000F920FB60F9211248F939F938091300176
:1008B000909131010196909331018093300180B77E
:1008C000826080BF80B7816080BF9F918F910F90C1
:1008D0000FBE0F901F901895DC0101C06D93415021
:1008E0005040E0F70895AEE0B0E0E9E7F4E00C94A2
:1008F0001B070D891E8986E08C831A8309838FEF7D
:100900009FE79E838D83AE01475E5F4F6F89788D31
:10091000CE0101960E949504EF81F885E00FF11F4A
:1009200010822E96E4E00C943707ACE0B0E0EBE9DF
:10093000F4E00C940D077C016B018A01FC01178225
:100940001682838181FFBDC1CE0101964C01F70162
:100950009381F60193FD859193FF81916F01882327
:1009600009F4ABC1853239F493FD859193FF8191F0
:100970006F01853229F4B70190E00E947D06E7CF30
:10098000512C312C20E02032A0F48B3269F030F46D
:10099000803259F0833269F420612CC08D3239F0F5
:1009A000803339F4216026C02260246023C028608F
:1009B00021C027FD27C030ED380F3A3078F426FFEC
:1009C00006C0FAE05F9E300D1124532E13C08AE05A
:1009D000389E300D1124332E20620CC08E3221F44B
:1009E00026FD6BC1206406C08C3611F4206802C05D
:1009F000883641F4F60193FD859193FF81916F0153
:100A00008111C1CF982F9F7D9554933028F40C5FAE
:100A10001F4FFFE3F9830DC0833631F0833771F048
:100A2000833509F05BC022C0F801808189830E5FA5
:100A30001F4F44244394512C540115C03801F2E057
:100A40006F0E711CF801A080B18026FF03C0652DD8
:100A500070E002C06FEF7FEFC5012C870E94720625
:100A60002C0183012C852F77222E17C03801F2E04C
:100A70006F0E711CF801A080B18026FF03C0652DA8
:100A800070E002C06FEF7FEFC5012C870E94670600
:100A90002C012C852068222E830123FC1BC0832D72
:100AA00090E048165906B0F4B70180E290E00E9449
:100AB0007D063A94F4CFF50127FC859127FE8191BC
:100AC0005F01B70190E00E947D0631103A94F1E099
:100AD0004F1A51084114510471F7E5C0843611F0E2
:100AE000893639F5F80127FF07C06081718182815D
:100AF00093810C5F1F4F08C060817181882777FD4B
:100B00008095982F0E5F1F4F2F76B22E97FF09C04A
:100B100090958095709561957F4F8F4F9F4F20687E
:100B2000B22E2AE030E0A4010E94AF06A82EA81839
:100B300044C0853729F42F7EB22E2AE030E025C04C
:100B4000F22FF97FBF2E8F36C1F018F4883579F077
:100B5000B4C0803719F0883721F0AFC02F2F206143
:100B6000B22EB4FE0DC08B2D8460B82E09C024FFB8
:100B70000AC09F2F9660B92E06C028E030E005C05D
:100B800020E130E002C020E132E0F801B7FE07C00A
:100B900060817181828193810C5F1F4F06C06081EB
:100BA000718180E090E00E5F1F4FA4010E94AF06AC
:100BB000A82EA818FB2DFF77BF2EB6FE0BC02B2D3D
:100BC0002E7FA51450F4B4FE0AC0B2FC08C02B2D31
:100BD0002E7E05C07A2C2B2D03C07A2C01C0752CDB
:100BE00024FF0DC0FE01EA0DF11D8081803311F458
:100BF000297E09C022FF06C07394739404C0822F1B
:100C0000867809F0739423FD13C020FF06C05A2C88
:100C1000731418F4530C5718732C731468F4B70139
:100C200080E290E02C870E947D0673942C85F5CF9E
:100C3000731410F4371801C0312C24FF12C0B7010F
:100C400080E390E02C870E947D062C8522FF17C050
:100C500021FF03C088E590E002C088E790E0B7017B
:100C60000CC0822F867859F021FD02C080E201C0BD
:100C70008BE227FD8DE2B70190E00E947D06A5146E
:100C800038F4B70180E390E00E947D065A94F7CFD4
:100C9000AA94F401EA0DF11D8081B70190E00E9451
:100CA0007D06A110F5CF332009F451CEB70180E2C3
:100CB00090E00E947D063A94F6CFF70186819781F5
:100CC00002C08FEF9FEF2C96E2E10C942907FC0104
:100CD0000590615070400110D8F7809590958E0F67
:100CE0009F1F0895FC016150704001900110D8F7DA
:100CF000809590958E0F9F1F08950F931F93CF930C
:100D0000DF93182F092FEB018B8181FD03C08FEF3B
:100D10009FEF20C082FF10C04E815F812C813D81FA
:100D2000421753077CF4E881F9819F012F5F3F4F01
:100D300039832883108306C0E885F985812F0995BA
:100D4000892B29F72E813F812F5F3F4F3F832E83D1
:100D5000812F902FDF91CF911F910F910895FA016C
:100D6000AA27283051F1203181F1E8946F936E7FEA
:100D70006E5F7F4F8F4F9F4FAF4FB1E03ED0B4E0DB
:100D80003CD0670F781F891F9A1FA11D680F791F1C
:100D90008A1F911DA11D6A0F711D811D911DA11D2D
:100DA00020D009F468943F912AE0269F112430193D
:100DB000305D3193DEF6CF010895462F4770405DD8
:100DC0004193B3E00FD0C9F7F6CF462F4F70405D87
:100DD0004A3318F0495D31FD4052419302D0A9F7E2
:100DE000EACFB4E0A6959795879577956795BA95DC
:100DF000C9F700976105710508959B01AC010A2EA2
:100E000006945795479537952795BA95C9F7620F78
:100E1000731F841F951FA01D08952F923F924F921C
:100E20005F926F927F928F929F92AF92BF92CF927A
:100E3000DF92EF92FF920F931F93CF93DF93CDB783
:100E4000DEB7CA1BDB0B0FB6F894DEBF0FBECDBFFB
:100E500009942A88398848885F846E847D848C84CC
:100E60009B84AA84B984C884DF80EE80FD800C81D5
:100E70001B81AA81B981CE0FD11D0FB6F894DEBFB8
:0C0E80000FBECDBFED010895F894FFCF28
:100E8C00010806062068002564004E415049454380
:100E9C004945204E4120435A554A4E49004E415037
:100EAC004945434945204E4120504F54454D000083
:00000001FF
